:020000040800F2
:1000000030420020097B0008F57A0008F77A0008E2
:10001000F97A0008FB7A0008FD7A00080000000069
:10002000000000000000000000000000FF7A00084F
:10003000017B000800000000037B0008057B00082E
:10004000497B00084D7B0008517B0008557B000868
:10005000597B00085D7B0008617B0008657B000818
:10006000697B00086D7B0008717B0008757B0008C8
:10007000797B00087D7B0008817B0008857B000878
:10008000897B00088D7B0008917B0008957B000828
:10009000997B00089D7B0008A17B0008A57B0008D8
:1000A000A97B0008AD7B0008B17B0008B57B000888
:1000B000B97B0008BD7B0008C17B0008C57B000838
:1000C000C97B0008CD7B0008D17B0008D57B0008E8
:1000D000D97B0008DD7B0008E17B0008E57B000898
:1000E000E97B0008ED7B0008F17B0008F57B000848
:1000F000F97B0008FD7B0008017C0008057C0008F6
:10010000097C00080D7C0008117C0008157C0008A3
:10011000197C00081D7C0008217C0008257C000853
:10012000297C00082D7C0008317C0008357C000803
:10013000397C00083D7C0008417C0008457C0008B3
:10014000497C00084D7C0008517C0008557C000863
:10015000597C00085D7C0008617C0008657C000813
:10016000697C00086D7C0008717C0008757C0008C3
:10017000797C00087D7C0008817C0008857C000873
:10018000897C00088D7C0008000000000000000051
:10019000000000000000000000000000000000005F
:1001A000000000003030303030303030303030003F
:1001B0000030300000000000000000006666666647
:1001C00066000000000000000000000000000000C9
:1001D00000000000000000000C600C600CE018C083
:1001E000FFF0FFF018C031803180FFF0FFF0318068
:1001F00073006300630000000000000000000000C6
:1002000000000000000004001F003F8075C064C0B3
:10021000640074003E000F8005C004C004C064C0C8
:1002200075C03F801F0004000400000000000000B3
:100230000000000000000000000000001C06003666
:100240000C00630C00631800631800633000366014
:10025000001C670000CD8000D8C00198C00198C084
:100260000318C0060D800607000000000000000013
:10027000000000000000000000000000000000007E
:1002800007800FC01860186018C00D800F001F0095
:10029000339861D860F0606070F03FD81F080000AC
:1002A00000000000000000000000000060606060CE
:1002B00060000000000000000000000000000000DE
:1002C000000000000408181030306060606060605A
:1002D000603030101808040000000000402030108A
:1002E00018180C0C0C0C0C0C0C18181030204000BA
:1002F000000000001818FF183C6600000000000015
:1003000000000000000000000000000000000000ED
:1003100000000000000006000600060006007FE066
:100320007FE0060006000600060000000000000056
:1003300000000000000000000000000000000000BD
:10034000000000000000000000303010102000000D
:10035000000000000000000000000000FCFC0000A5
:10036000000000000000000000000000000000008D
:10037000000000000000000000303000000000001D
:10038000000000000C0C1818181830303060606045
:1003900060C0C0000000000000000000000000007D
:1003A0001F003FC030C0606060606060606060607F
:1003B000606060606060606030C03FC00F800000BF
:1003C000000000000000000000000000000000002D
:1003D000030003000F001F003300030003000300AD
:1003E00003000300030003000300030003000000F8
:1003F00000000000000000000000000000000000FD
:100400001F803FC070E060600060006000C000C0FE
:10041000018007000E00180030007FE07FE0000040
:1004200000000000000000000000000000000000CC
:100430001F003F8071C060C000C00180070007C07E
:1004400000E000600060606070C03FC01F000000FE
:10045000000000000000000000000000000000009C
:1004600000800180038007800D800D80198031801D
:1004700061807FE07FE001800180018001800000D9
:10048000000000000000000000000000000000006C
:100490001FC01FC030003000300037807FC060E0D8
:1004A000006000600060606070C03FC01F0000001E
:1004B000000000000000000000000000000000003C
:1004C0000F801FC030E03060600067807FC070E048
:1004D000606060606060606030C01FC00F0000003E
:1004E000000000000000000000000000000000000C
:1004F0007FE07FE000C00180018003000300060070
:1005000006000C000C000C00180018001800000079
:1005100000000000000000000000000000000000DB
:100520000F001F8030C030C030C030C01F801F801F
:1005300030C060606060606070E03FC01F8000009D
:1005400000000000000000000000000000000000AB
:100550000F003F8030C0606060606060606030E0CD
:100560003FE01E60006060C070C03F801F00000060
:10057000000000000000000000000000000000007B
:1005800030300000000000000030300000000000AB
:1005900000000000000000003030000000000000FB
:1005A00000303010102000000000000000000000AB
:1005B00000000000002000E003C00F0038006000D1
:1005C00038000F0003C000E0002000000000000021
:1005D000000000000000000000000000000000001B
:1005E00000000000000000007FE07FE0000000004D
:1005F00000007FE07FE0000000000000000000003D
:1006000000000000000000000000000000000000EA
:1006100000000000400070003C000F0001C00060BE
:1006200001C00F003C00700040000000000000000E
:1006300000000000000000000000000000000000BA
:100640001F803FC070E06060006000C001C0038098
:10065000070006000600000000000600060000007B
:10066000000000000000000000000000000000008A
:100670000000000000FE0007FF800F03C01C00E028
:1006800018736031FB70338E306306306606306657
:100690000630660470660C60671CC033FF8039EF5B
:1006A000301C00600F01C007FF8001FE0000000049
:1006B0000000000000000000070007000D800D8012
:1006C0000D8018C018C018C03FE03FE060306030B7
:1006D0006030C018C01800000000000000000000DA
:1006E00000000000000000003FC03FE030703030EC
:1006F000303030703FE03FE0303030183018301884
:1007000030383FF03FE00000000000000000000033
:10071000000000000000000007E01FF01C38301C43
:10072000700C60006000600060006000700C3018A9
:100730003C381FF007E0000000000000000000004F
:1007400000000000000000003FC03FF030383018CB
:10075000300C300C300C300C300C300C300C3018AD
:1007600030383FF03FC000000000000000000000F3
:1007700000000000000000003FF83FF830003000AB
:10078000300030003FF03FF03000300030003000EB
:1007900030003FF83FF800000000000000000000BB
:1007A00000000000000000003FF03FF0300030008B
:1007B000300030003FE03FE03000300030003000DB
:1007C0003000300030000000000000000000000099
:1007D000000000000000000007F00FF81C1C300EA5
:1007E00030046000600060FE60FE60063006300687
:1007F0001C1E0FFC03F000000000000000000000C1
:100800000000000000000000601860186018601808
:10081000601860187FF87FF860186018601860181A
:100820006018601860180000000000000000000060
:100830000000000030303030303030303030303078
:100840003030300000000000000000000000000018
:100850000180018001800180018001800180018090
:10086000018001806180618073803F001E00000074
:100870000000000000000000000000000000000078
:100880003038307030E031C03380370037003F00FF
:100890003B8031C030E0306030703038301C0000B8
:1008A0000000000000000000000000000000000048
:1008B00030003000300030003000300030003000B8
:1008C000300030003000300030003FE03FE00000FA
:1008D0000000000000000000000000000000000018
:1008E00000000000700700780F00780F00680B0010
:1008F0006C1B006C1B0064130066330066330062DF
:10090000230063630063630061430061C30061C34C
:1009100000000000000000000000000000000000D7
:1009200000000000000000006018701878187818A7
:100930006C186618661863186198619860D86078BA
:1009400060786038601800000000000000000000BF
:10095000000000000000000007E00FF01C38300C21
:10096000700E60066006600660066006700E300C51
:100970001C380FF007E0000000000000000000003D
:1009800000000000000000003FE03FF03038301869
:100990003018301830383FF03FE030003000300081
:1009A00030003000300000000000000000000000B7
:1009B000000000000000000007E00FF81C3C300CB5
:1009C000700E60066006600660066006700C30EC13
:1009D0001C380FFC07EE00020000000000000000C1
:1009E00000000000000000003FE03FF03038301809
:1009F000301830383FF03FE030C030E030603070C9
:100A000030383018301C00000000000000000000EA
:100A1000000000000000000007C01FF03838301848
:100A2000300038001F8007E0007000186018701850
:100A300038381FF00FC00000000000000000000068
:100A40000000000000000000FFF0FFF006000600BC
:100A50000600060006000600060006000600060066
:100A60000600060006000000000000000000000074
:100A70000000000000000000601860186018601896
:100A80006018601860186018601860186018703876
:100A900038701FE00FC000000000000000000000E0
:100AA0000000000000000000C018E0386030603036
:100AB00070703060306038E018C018C01DC00D8004
:100AC0000D800F8007000000000000000000000003
:100AD000000000000000000000000000C07018C00E
:100AE000701860D83060D83060D83070C870318CE1
:100AF00060318C60318C601B06C01B06C01B06C0B9
:100B00001B06C00E03800E038000000000000000E2
:100B100000000000000000000000000000000000D5
:100B20007038387018600CC00CC007800300078054
:100B300007800DC01CE0186030307038E01C0000E9
:100B400000000000000000000000000000000000A5
:100B5000E01C6018303038701CE00CC00780078043
:100B60000300030003000300030003000300000070
:100B70000000000000000000000000000000000075
:100B80007FF07FF0006000C001800180030006005C
:100B90000C001800180030006000FFF0FFF00000AB
:100BA0000000000000000000000000007878606095
:100BB0006060606060606060606060606078780065
:100BC00000000000C0C0606060603030301818184D
:100BD000180C0C00000000000000000078781818C5
:100BE00018181818181818181818181818787800DD
:100BF00000000000183C3C3C666666C30000000034
:100C000000000000000000000000000000000000E4
:100C100000000000000000000000000000000000D4
:100C200000000000000000000000000000000000C4
:100C30000000FFF0FFF00000000000006030100036
:100C400000000000000000000000000000000000A4
:100C50000000000000000000000000000000000094
:100C60001F807FC060C000C007C03FC078C060C0A8
:100C700061C07FC03E600000000000000000000076
:100C800000000000000000006000600060006000E4
:100C90006F007F80718060C060C060C060C060C055
:100CA00071807F806F0000000000000000000000E5
:100CB0000000000000000000000000000000000034
:100CC0000F003F8031C060C060006000600060C005
:100CD00031C03F801F000000000000000000000045
:100CE000000000000000000000C000C000C000C004
:100CF0001EC03FC031C060C060C060C060C060C086
:100D000031C03FC01EC00000000000000000000015
:100D100000000000000000000000000000000000D3
:100D20000F003FC030C060607FE07FE06000600087
:100D300030E03FC00F800000000000000000000015
:100D4000000000001C3C3030FCFC303030303030D3
:100D50003030300000000000000000000000000003
:100D600000000000000000001EC03FC031C060C095
:100D700060C060C060C060C031C03FC01EC000C065
:100D800061C07F801F000000000000000000000024
:100D900060006000600060006F007F8071C060C014
:100DA00060C060C060C060C060C060C060C0000063
:100DB0000000000000000000000000006060000073
:100DC0006060606060606060606060000000000003
:100DD0000000000060600000606060606060606053
:100DE0006060606060E0C000000000000000000083
:100DF000600060006000600061C0638067006E009A
:100E00007C007E00660063006380618061C000003A
:100E10000000000000000000000000006060606052
:100E200060606060606060606060600000000000A2
:100E300000000000000000000000000000000000B2
:100E40006F3C7F7E71C66186618661866186618640
:100E500061866186618600000000000000000000DD
:100E60000000000000000000000000000000000082
:100E70006F007F8071C060C060C060C060C060C033
:100E800060C060C060C00000000000000000000002
:100E90000000000000000000000000000000000052
:100EA0000F003FC030C06060606060606060606084
:100EB00030C03FC00F000000000000000000000034
:100EC0000000000000000000000000000000000022
:100ED0006F007F80718060C060C060C060C060C013
:100EE00071807F806F006000600060006000000023
:100EF00000000000000000000000000000000000F2
:100F00001EC03FC031C060C060C060C060C060C073
:100F100031C03FC01EC000C000C000C000C0000003
:100F200000000000000000006E7E70606060606085
:100F30006060600000000000000000000000000091
:100F400000000000000000001F003F8060C0600043
:100F50007C003F8003C000C060C03F801F000000D5
:100F60000000000000000000000000002060606041
:100F7000F8F8606060606060607838000000000031
:100F80000000000000000000000000000000000061
:100F900060C060C060C060C060C060C060C060C051
:100FA00071C03FC01EC00000000000000000000033
:100FB0000000000000000000000000000000000031
:100FC000C060C06060C060C0318031801B001B0009
:100FD0000E000E00040000000000000000000000F1
:100FE0000000000000000000000000000000000001
:100FF000C106C3864384628C66CC36D836D814507A
:101000001C701C700C60000000000000000000005C
:1010100000000000000000000000000000000000D0
:10102000E1C06180330033001E000C001E0033005D
:1010300033006180E1C000000000000000000000FB
:1010400000000000000000000000000000000000A0
:1010500060C060C031803180398019801B000F0072
:101060000F000600060006000C007C00780000005F
:101070000000000000000000000000000000000070
:101080007F807F80038007000E001C003800700006
:10109000E000FF80FF800000000000000000000072
:1010A000000000001C3C303030303070E0E0603038
:1010B00030303030303C1C00000000003030303028
:1010C0003030303030303030303030303030303020
:1010D00000000000707818181818181C0E0E1C1844
:1010E00018181818187870000000000000000000A0
:1010F00000000000000000000000000038007E201A
:1011000047E001C0000000000000000000000000F7
:101110000000000000000000060601008801000831
:1011200006060100A001000807070100B801000839
:101130000C0C0200D00100080C0C02000002000898
:1011400013130300300200080E0E0200780200089C
:1011500004040100A802000807070100C0020008FB
:1011600007070100D802000808080100F002000883
:101170000C0C0200080300080606010038030008F2
:101180000707010050030008060601006803000875
:1011900006060100800300080C0C020098030008FA
:1011A0000C0C0200C80300080C0C0200F803000835
:1011B0000C0C0200280400080C0C02005804000863
:1011C0000C0C0200880400080C0C0200B804000893
:1011D0000C0C0200E80400080C0C020018050008C2
:1011E0000C0C0200480500080606010078050008FE
:1011F00006060100900500080C0C0200A805000876
:101200000C0C0200D80500080C0C020008060008AF
:101210000C0C0200380600081515030068060008CB
:101220000D0D0200B00600080E0E0200E0060008D8
:101230000F0F0200100700080F0F02004007000800
:101240000E0E0200700700080D0D0200A007000836
:1012500010100200D00700080E0E0200000800085F
:1012600006060100300800080B0B020048080008C1
:101270000E0E0200780800080C0C0200A8080008F6
:1012800011110300D80800080E0E02002009000802
:1012900010100200500900080E0E0200800900081C
:1012A00010100200B00900080F0F0200E00900084A
:1012B0000E0E0200100A00080C0C0200400A000882
:1012C0000E0E0200700A00080D0D0200A00A0008B0
:1012D00015150300D00A00080E0E0200180B0008B6
:1012E0000E0E0200480B00080D0D0200780B0008DE
:1012F00006060100A80B000806060100C00B000846
:1013000006060100D80B000808080100F00B0008D1
:101310000C0C0200080C000807070100380C00083C
:101320000C0C0200500C00080B0B0200800C000893
:101330000B0B0200B00C00080B0B0200E00C0008C5
:101340000C0C0200100D000806060100400D0008FC
:101350000B0B0200580D00080B0B0200880D000853
:1013600005050100B80D000804040100D00D0008B7
:101370000A0A0200E80D000804040100180E000823
:1013800010100200300E00080B0B0200600E000867
:101390000C0C0200900E00080B0B0200C00E00089F
:1013A0000B0B0200F00E000807070100200F0008D9
:1013B0000B0B0200380F000806060100680F00083A
:1013C0000B0B0200800F00080B0B0200B00F00088F
:1013D0000F0F0200E00F00080A0A020010100008B8
:1013E0000B0B0200401000080909020070100008F1
:1013F00007070100A010000806060100B810000849
:1014000007070100D01000080C0C0200E8100008CB
:1014100020007E001811000800000000217600085E
:10142000D5760008FD76000803770008000000006C
:101430001818010110140008130B0F000000000021
:10144000000000000000000000000000000000009C
:10145000000000606000606060606060606060600C
:101460000000000000000C000C001E803F806D801A
:10147000CC00CC00CC00CC80ED807F001E000C00A6
:101480000C000000000000000000000007C01FE08A
:1014900018603800300030007FC07FC01000180096
:1014A000180018103E303FF001E00000000000007E
:1014B0000000C000E0C07FC07F8063006300630065
:1014C0007E00FF00C18001800000000000000000DD
:1014D0000000000000006180618033007380738031
:1014E0001E000C003F003F000C000C000C00000030
:1014F00000000000000060606060600000606060EC
:1015000060606000000000000000000000003E007D
:101510007F0063006000FC00C70073001E008300B2
:10152000C3007F003E00000000000000000000003B
:1015300000000000660066000000000000000000DF
:10154000000000000000000000000000000000009B
:101550000000000007801FE03860333067306C30D7
:101560006CB06FB0676030E03FC00F8000000000DB
:10157000000000000000003C7C6C6C7676260000C9
:10158000000000000000000000000000000000005B
:1015900000000000198033006600CC0066003300B4
:1015A00019800000000000000000000000000000A2
:1015B00000000000000000000000000000007F00AC
:1015C0007F00030003000000000000000000000096
:1015D0000000000000000000007C7C000000000013
:1015E00000000000000000000F801FC038603F7046
:1015F000693069306E306E306D6030E03FC00F0092
:1016000000000000000000000000FFC0000000001B
:1016100000000000000000000000000000000000CA
:101620000000000000000000000000000078FCCC7A
:10163000CCFC78000000000000000000000000006A
:10164000000000000000181818FFFF18181800FF0D
:10165000FF00000000000C001E000600040008004F
:101660001E001E000000000000000000000000003E
:10167000000000000000000000003C003E000600EA
:101680000C0006003E003C000000000000000000CE
:101690000000000000000000000000000000183002
:1016A000604000000000000000000000000000009A
:1016B000000000000000006363C2C6C6C4FCFC80DA
:1016C0000000000000000000000003C01FC036C082
:1016D00066C066C066C06EC07F803D800D800D8094
:1016E0001B001B00000000000000000000000000C4
:1016F000606000000000000000000000000000002A
:1017000000000000000000000000000000000000D9
:10171000000000000000000018000C000C003C005D
:10172000000006000E000600060006000F000F0075
:1017300000000000000000000000000000000000A9
:101740000000000000183C6666663E3C0000000099
:101750000000000000000000000000000000000089
:10176000000000009800CC00660033006600CC004A
:101770009800000000000000000000000C001C00A9
:101780000C000C000C001E001E0000007F807F80FB
:1017900000000C000C001C002C007E000C000C0053
:1017A0000C001C000C000C000C001E001E000000B1
:1017B0007F807F8000000E001F00130002000C00DD
:1017C0001F001F003C003E0006001E0006003E00F9
:1017D0003C0000007F807F8000000C000C001C009B
:1017E0002C007E000C000C00000000000000000037
:1017F00006000600000004001C00300060006000CD
:10180000600073003F001E000000000003000100A4
:10181000000001800180038006C006C00CC01FC00C
:101820001FC030E0306060606060000000000000B9
:1018300003000200000001800180038006C006C092
:101840000CC01FC01FC030E03060606060600000EE
:101850000000000003C006600000018001800380DA
:1018600006C006C00CC01FC01FC030E03060606002
:1018700060600000000000000FE009C0000001806F
:101880000180038006C006C00CC01FC01FC030E02E
:101890003060606060600000000000000CC00CC0A0
:1018A000000001800180038006C006C00CC01FC07C
:1018B0001FC030E030606060606000000000000029
:1018C0000220022001C001800180038006C006C002
:1018D0000CC01FC01FC030E030606060606000005E
:1018E00000000000000000000000003FC0007FC0BA
:1018F00000F00001B00003300003FF8007FF800C00
:101900003000183000183000303000603000603F88
:1019100080001F80000000000000000000000000A8
:1019200000000F801F803980300060006000C00020
:10193000C000C000E1807F803E000C000400380041
:101940000600020000007F007F0060006000600071
:101950007F007F006000600060007F003F000000AB
:10196000000000000800000000007F007F00600011
:10197000600060007F007F006000600060007F000A
:101980003F000000000000001E00330000007F0048
:101990007F006000600060007F007F0060006000EA
:1019A00060007F003F0000000000000033003300B3
:1019B00000007F007F006000600060007F007F000B
:1019C0006000600060007F003F0000000000000039
:1019D000180008000000FF00FF00180018001800A1
:1019E00018001800180018001800FF00FF00000081
:1019F00000000000180010000000FF00FF001800A9
:101A00001800180018001800180018001800FF002F
:101A1000FF00000000000000660000000000FF0062
:101A2000FF0018001800180018001800180018000F
:101A30001800FF00FF0000000000000066006600C4
:101A40000000FF00FF001800180018001800180020
:101A5000180018001800FF00FF0000000000000040
:101A600000000000000030003E00378031C03060D0
:101A7000FE70FE3030303030307030E03FC01F80BC
:101A8000000000001FC01380000060206030703034
:101A900078306C3066306230633061B060F0607016
:101AA000603000000000000001800080000007C0DE
:101AB0001FE03870303070306030603060706060CF
:101AC00030E03FC00F0000000000000003000200F3
:101AD000000007C01FE03870303070306030603078
:101AE0006070606030E03FC00F0000000000000048
:101AF0000CC00000000007C01FE0387030307030AC
:101B0000603060306070606030E03FC00F00000007
:101B1000000000000FE009C0000007C01FE038709F
:101B200030307030603060306070606030E03FC0F6
:101B30000F000000000000000CC00CC0000007C037
:101B40001FE038703030703060306030607060603E
:101B500030E03FC00F000000000000000000000067
:101B6000000000663E181C36220000000000000045
:101B700000000000000007C80FF0186030F031B01E
:101B8000613062306470686078E03FC07F80400000
:101B900000000000060002000000606060606060FD
:101BA0006060606060606060606070C031C03F8095
:101BB0000F0000000000000006000400000060604C
:101BC000606060606060606060606060606070C0A5
:101BD00031C03F800F0000000000000019800000AD
:101BE00000006060606060606060606060606060B5
:101BF000606070C031C03F800F0000000000000036
:101C000019801980000060606060606060606060E2
:101C100060606060606070C031C03F800F00000095
:101C2000000000000C000800000060C060C031C06F
:101C300031801B801B000F000F0006000E000C00FF
:101C40001800000000000000000000607E7F63615B
:101C500061637F7E606060000000000000001C3E49
:101C60007666666E6C6E6666767E6C60000000005E
:101C7000000020301808003E7EE6C6C6C6FE7B0087
:101C8000000000000000060C1810003E7EE6C6C6EC
:101C9000C6FE7B00000000000000183C6600003E0D
:101CA0007EE6C6C6C6FE7B000000000000000039CC
:101CB0007F4E003E7EE6C6C6C6FE7B0000000000EA
:101CC000000000006666003E7EE6C6C6C6FE7B00DB
:101CD00000000000001C22221C00003E7EE6C6C65A
:101CE000C6FE7B00000000000000000000000000B5
:101CF0000000000000000E703FF871B861F061C094
:101D000071843FFC1EF8000000000000000000008D
:101D10000000003C7E62C0C0C6FE7C18087800004F
:101D2000000020301808003C7EE6CCD8E2FE3C00E3
:101D3000000000000000060C1810003C7EE6CCD825
:101D4000E2FE3C0000000000000000183C66003C81
:101D50007EE6CCD8E2FE3C000000000000000066F9
:101D60006600003C7EE6CCD8E2FE3C0000000000AD
:101D7000000080C0602000606060606060606000A3
:101D80000000000000003060C080006060606060A3
:101D9000606060000000000000000060F0980060DB
:101DA0006060606060606000000000000000000093
:101DB00098980060606060606060600000000000F3
:101DC000000060603E387C6C0E3E66C6C6FC780043
:101DD00000000000000000397F4E00DCFEE6C6C6B1
:101DE000C6C6C60000000000000010180C04003831
:101DF0007CC6C6C6C67C3800000000000000060C89
:101E0000181000387CC6C6C6C67C3800000000002A
:101E10000000003078CC00387CC6C6C6C67C3800CE
:101E20000000000000000072FE9C00387CC6C6C6A0
:101E3000C67C380000000000000000006666003824
:101E40007CC6C6C6C67C380000000000000000004A
:101E500000000000000008000800000000007F00F3
:101E60007F000000080008000000000000000000E3
:101E7000000000000000003A7EE6DEE6CEFCB8007E
:101E80000000000000002030180800C6C6C6C6C604
:101E9000C6FE7E00000000000000060C181000C600
:101EA000C6C6C6C6C6FE7E000000000000000030A8
:101EB00078CC00C6C6C6C6C6C6FE7E0000000000BE
:101EC00000000066660000C6C6C6C6C6C6FE7E0026
:101ED000000000000000000006000C0018001000C8
:101EE0000000C300E3006300760036003C001C00E5
:101EF0001800180030003000000000006000600092
:101F00006000600060006E007F006300630063009B
:101F100063007E007C006000600060000000000044
:101F200000000000CC00CC000000C300E300630010
:101F3000760036003C001C0018001800300030000D
:101F4000050501003C1400080404010050140008B9
:101F50000A0A0200641400080D0D0200881400082B
:101F60000A0A0200AC1400080A0A0200D014000891
:101F700006060100F41400080A0A02000815000809
:101F8000090902002C1500080D0D0200501500086B
:101F900008080100741500080909020088150008E6
:101FA00009090200AC15000807070100D015000858
:101FB0000D0D0200E41500080A0A020008160008C8
:101FC000070701002C160008080801004016000849
:101FD0000A0A0200541600080A0A020078160008CD
:101FE000080801009C16000808080100B016000847
:101FF0000B0B0200C416000804040100E8160008D8
:1020000009090200FC1600080A0A0200201700084D
:1020100008080100441700080909020058170008C1
:102020000A0A02007C1700080A0A0200A01700082A
:102030000A0A0200C417000809090200E81700088C
:102040000C0C02000C1800080C0C020030180008E0
:102050000C0C0200541800080C0C02007818000840
:102060000C0C02009C1800080C0C0200C0180008A0
:1020700013130300E41800080A0A02001C190008E0
:102080000A0A0200401900080A0A0200641900083E
:102090000A0A0200881900080A0A0200AC1900089E
:1020A00009090200D019000809090200F419000802
:1020B00009090200181A0008090902003C1A000860
:1020C0000C0C0200601A00080D0D0200841A0008B2
:1020D0000D0D0200A81A00080D0D0200CC1A000810
:1020E0000D0D0200F01A00080D0D0200141B00086F
:1020F0000D0D0200381B0008080801005C1B0008D9
:102100000D0D0200701B00080C0C0200941B00084F
:102110000C0C0200B81B00080C0C0200DC1B0008B1
:102120000C0C0200001C00080B0B0200241C000811
:1021300008080100481C0008080801005C1C000891
:1021400008080100701C000808080100841C000831
:1021500008080100981C000808080100AC1C0008D1
:1021600008080100C01C000808080100D41C000871
:102170000F0F0200E81C0008080801000C1D0008F1
:1021800008080100201D000808080100341D00088F
:1021900008080100481D0008080801005C1D00082F
:1021A00005050100701D000805050100841D0008DB
:1021B00005050100981D000805050100AC1D00087B
:1021C00008080100C01D000808080100D41D00080F
:1021D00008080100E81D000808080100FC1D0008AF
:1021E00008080100101E000808080100241E00084D
:1021F00008080100381E0008090902004C1E0008EA
:1022000008080100701E000808080100841E00086C
:1022100008080100981E000808080100AC1E00080C
:1022200008080100C01E000809090200D41E0008A9
:1022300009090200F81E0008090902001C1F000815
:10224000000000000000000000000000000000008E
:10225000000000000000000000000000000000007E
:10226000000000000000000000000000000000006E
:10227000000000000000000000000000000000005E
:102540000000000000000000A000FF00401F000885
:102550000000000020007F00983000084825000897
:1025600021760008D5760008FD760008037700087C
:102570000000000012120101542500080F080C0091
:10258000000000000000000000000000000000004B
:10259000000000000000606060606060606060607B
:1025A000600060600000000000000066666666660D
:1025B000000000000000000000000000000000001B
:1025C00000000C600C607FF87FF818C019C03180E3
:1025D000FFF0FFF0338063006300000000000000A4
:1025E00000000C000C001F007F80EC00CC00CC0031
:1025F000FF003F800DC00CC0CDC0FF807F000C00ED
:102600000C000C000000000000807180F900DB006D
:10261000FA00760004000C0008E019F011B031F067
:1026200020E00000000000000000000000000E009C
:102630001F001B001E001C003C406640C3C0C1C000
:10264000E1807FC03E00000000000000000000307C
:1026500030303030000000000000000000000000BA
:1026600000000C1C183030606060606060603030CA
:10267000180C00000000C0E060303018181818185E
:102680001818303060C00000000000000000080092
:102690007F003F001C003600260000000000000004
:1026A000000000000000000000000000000000002A
:1026B0000000181818FFFF1818180000000000008C
:1026C000000000000000000000000000000020608A
:1026D000400000000000000000000000007C7C00C2
:1026E00000000000000000000000000000000000EA
:1026F000000000000060600000000000000000001A
:102700000000030003000300060006000C000C009C
:102710001800180030003000600060000000000069
:102720000000000000001E007F006300C180C18027
:10273000C180C180C180C18063007F003E00000075
:1027400000000000000000183878581818181818F1
:10275000187E7E00000000000000000000001E0047
:102760003F8071806180018007000E00380070009A
:1027700060007F807F8000000000000000000000FB
:1027800000003E007F006300030007003C001F00C4
:102790000300030043007E003E0000000000000034
:1027A000000000000000030007000F000B001300F2
:1027B00033006300FFC0FFC00300030003000000FC
:1027C000000000000000000000007F807F806000AB
:1027D0007E007F00638061800180018063807F00D4
:1027E0003E000000000000000000000000000600A5
:1027F0000E001C00380030007F007F806180618007
:1028000073803F001E000000000000000000000078
:1028100000007FC07FC001800300020006000600A8
:102820000C000C0018001800100000000000000050
:102830000000000000001E007F00618061807F00BA
:102840003F0073806180618061807F001E00000016
:10285000000000000000000000001E003F00738028
:102860006180618073803F801F80030007000E003D
:102870003C0030000000000000000000000000608C
:102880006000000060600000000000000000000028
:1028900000000030300000000030606000000000E8
:1028A0000000000000000C1C386030180C00000014
:1028B000000000000000000000007E7E0000007E9E
:1028C0007E000000000000000000000000006030FA
:1028D000180C3870400000000000000000000000EC
:1028E000000000003C007E006700030003000300BE
:1028F00006001C0010000000300030000000000046
:102900000000000007C01FF018383018330C660CA8
:102910006C8C6D8C6FF866707000300018601FE072
:1029200007C000000000000000000180018003805B
:1029300006C006C00CC01FC01FC030E03060606021
:1029400060600000000000000000000000007C004B
:102950007E006700630067007E007F006380618007
:1029600063807F007C000000000000000000000089
:1029700000000F001F00330060006000C000C000B6
:10298000C000C100E7007E003C0000000000000025
:1029900000000000000060007C007F00638060C0D9
:1029A000606060606060606061C07F803F000000C8
:1029B000000000000000000000007F007F006000B9
:1029C000600060007F007F006000600060007F00AA
:1029D0003F000000000000000000000000007F80B9
:1029E0007FC06000600060007F807F8060006000CA
:1029F00060006000600000000000000000000000B7
:102A000000000E001F80398070006000DFC0DFC052
:102A1000C0C0C180C3807F003C00000000000000F7
:102A200000000000000060606060606060606060E6
:102A300067E07FE078606060606060606060000018
:102A400000000000000000000000FF00FF00180070
:102A50001800180018001800180018001800FF00CF
:102A6000FF000000000000000000000000003FC068
:102A70003FC006000600060006000600C600C600AD
:102A8000E6007E001C0000000000000000000000C6
:102A9000000060806180630066006C007000700060
:102AA00078006C0066006380618000000000000018
:102AB0000000000000006000600060006000600036
:102AC000600060006000600060007F007F00000028
:102AD000000000000000000000000C201C701C70B2
:102AE0001C70145036D836D836D826D86798638CE0
:102AF000638C000000000000000000000000602067
:102B00006030703078306C3066306230633061B085
:102B100060F0607060300000000000000000000005
:102B2000000007C01FE03870303070306030603017
:102B30006070606030E03FC00F00000000000000E7
:102B40000000007C7E6763677E7C60606060600080
:102B5000000000000000000000000FC03FE078709F
:102B60006030C018C018C018C218631871B03FF0A8
:102B70000F6000300018000800000000000078001E
:102B80007E00670063806180618063007E007E005C
:102B9000670061C060C0000000000000000000008D
:102BA00000000F001F80380030003F001F8001C070
:102BB00000C060C061C03F801E0000000000000037
:102BC000000000000000FFC0FFC00C000C000C0063
:102BD0000C000C000C000C000C000C000C000000A1
:102BE00000000000000000000000606060606060A5
:102BF0006060606060606060606070C031C03F8035
:102C00000F0000000000000000000000000060C095
:102C100060C0618031803180318033001B001B0037
:102C20001B000E000E00000000000000000000006D
:102C3000000000000060C30061C30061C300614385
:102C400000336600336600336600366C00166C0095
:102C50001C6C001C78001C38000000000000000004
:102C6000000000000000000000006060606030C0F4
:102C700019800F00060007000F80198030C06060C7
:102C8000606000000000000000000000000060C064
:102C900060C031C031801B801B000F000F00060098
:102CA0000E000C00180000000000000000000000F2
:102CB00000007FE07FE001C0038007000E000C00F1
:102CC0001800300060007FE07FE00000000000009E
:102CD00000003C3C3030303030303030303030303C
:102CE0003C3C000000000060603030101818080CF8
:102CF0000C0C0606000000000000F8F81818181860
:102D00001818181818181818F8F800000000183CBF
:102D1000366200000000000000000000000000001B
:102D200000000000000000000000000000000000A3
:102D30000000000000000000000000000000000093
:102D40000000FFC0000000004000600030001000E4
:102D50000000000000000000000000000000000073
:102D60000000000000000000000000000000003E25
:102D70007EE6C6C6C6FE7B00000000000000000024
:102D8000600060006000600060006E007F00738083
:102D90006180618063807F007E0000000000000091
:102DA000000000000000003C7E62C0C0C27E3C000B
:102DB0000000000000000000030003000300030007
:102DC00003003F007F00E300C300C300E3007F0077
:102DD0003F00000000000000000000000000003C78
:102DE0007EE6CCD8E2FE3C00000000000000070FA9
:102DF0001C18187E7E1818181818180000000000FB
:102E00000000000000003C7EE6C6C6CEFE76060C42
:102E1000FC7800000000C0C0C0C0C0DCFEE6C6C632
:102E2000C6C6C60000000000000000606000006030
:102E300060606060606060000000000000000030C2
:102E40003000003030303030303030303030000042
:102E50000000000060006000600060006000620030
:102E600066006C007C007C0066006300630000006C
:102E70000000000000006060606060606060606092
:102E80006060600000000000000000000000000022
:102E9000000000000000DD80FFC0EEC0CCC0CCC050
:102EA000CCC0CCC0CCC0000000000000000000007E
:102EB000000000DCFEE6C6C6C6C6C6000000000074
:102EC00000000000000000387CC6C6C6C67C380082
:102ED00000000000000000000000000000000000F2
:102EE00060006E007F0063006300630063007E008B
:102EF0007C00600060006000000000000000003EF8
:102F00007EE6C6C6C67E3E0606060000000000003D
:102F10000000006E76666060606060000000000087
:102F2000000000000000001C7CE0F87C0CFC780035
:102F30000000000000000000303030FCFC30303079
:102F4000303030000000000000000000000000C62B
:102F5000C6C6C6C6C6FE7E00000000000000000017
:102F6000000000C6C66C6C6C383810000000000011
:102F70000000000000000000000000000000CCC0C5
:102F8000CCC0CCC0DEC0DAC0DAC073807380000071
:102F90000000000000000000000000000000000031
:102FA0000000C300E7007E003C003C007E00E7001C
:102FB000C30000000000000000000000000000004E
:102FC000000000000000C300E3006300760036004C
:102FD0003C001C0018001800300030000000000009
:102FE000000000000000000000007F007F000600DD
:102FF0000C00180030007F007F000000000000007F
:1030000000001C3C303030303070603030303030B8
:103010001C1C000000001818181818181818181888
:1030200018181818181800000000E0F03030303080
:1030300030381C3830303030E0E000000000000054
:10304000000000000000000018003C806C806780D9
:103050004700000000000000000000000000000029
:1030600000007E7E4242424242424242427E7E0016
:103070000000000000000000000007C01FC0380072
:10308000FF00FF006000FE00FE00600071803F80D6
:103090001E0000000000000005050100802500085A
:1030A000040401009425000808080100A825000870
:1030B0000D0D0200BC2500080B0B0200E0250008E6
:1030C0000D0D0200042600080A0A02002826000846
:1030D000060601004C2600080606010060260008CE
:1030E0000606010074260008090902008826000867
:1030F00008080100AC26000804040100C0260008EE
:1031000007070100D426000804040100E82600088F
:1031100009090200FC2600080A0A0200202700080C
:1031200007070100442700080A0A02005827000880
:103130000A0A02007C2700080A0A0200A0270008E9
:103140000A0A0200C42700080A0A0200E827000849
:103150000A0A02000C2800080A0A020030280008A7
:103160000A0A020054280008050501007828000812
:10317000050501008C28000806060100A0280008AB
:1031800008080100B428000807070100C828000843
:1031900009090200DC2800080F0F020000290008BE
:1031A0000C0C0200242900080A0A02004829000821
:1031B0000A0A02006C2900080C0C02009029000881
:1031C0000A0A0200B42900080A0A0200D8290008E5
:1031D0000B0B0200FC2900080C0C0200202A00083E
:1031E00009090200442A00080B0B0200682A0008A3
:1031F0000A0A02008C2A000809090200B02A000805
:103200000F0F0200D42A00080D0D0200F82A000852
:103210000D0D02001C2B000808080100402B0008BF
:103220000E0E0200542B00080B0B0200782B000836
:103230000B0B02009C2B00080B0B0200C02B00089C
:103240000C0C0200E42B00080A0A0200082C0008FB
:10325000111103002C2C00080C0C0200642C000837
:103260000B0B0200882C00080C0C0200AC2C000890
:1032700006060100D02C000808080100E42C000814
:1032800006060100F82C0008080801000C2D0008B3
:103290000A0A0200202D000809090200442D000836
:1032A00008080100682D00080A0A02007C2D0008A9
:1032B00008080100A02D000809090200B42D00082B
:1032C00008080100D82D000808080100EC2D0008AE
:1032D00008080100002E000808080100142E00084C
:1032E00005050100282E0008060601003C2E0008F6
:1032F00009090200502E000805050100742E00087F
:103300000B0B0200882E000808080100AC2E0008F4
:1033100008080100C02E000809090200D42E000888
:1033200008080100F82E0008080801000C2F00080A
:1033300007070100202F000807070100342F0008AD
:1033400008080100482F0008080801005C2F000849
:103350000B0B0200702F000809090200942F0008CF
:1033600009090200B82F000809090200DC2F000833
:1033700006060100003000080707010014300008AD
:1033800006060100283000080A0A02003C30000846
:1033900008080100603000080B0B020074300008C0
:1033A00038B50446DFF8F0060D4600F04DFBB0F9E5
:1033B00002208389B0F90010AA1A92B203FB02001E
:1033C0004900494200EB440008182C3032BD2DE979
:1033D000F44F9A469AF80030DFF8C0C60A9A13F8FC
:1033E0000C30C2F10805804643FA02F6DFF8A82641
:1033F0008946127B0B9F0C980D990E9C12F00302CC
:1034000003D0022A16D047D35EE0AF4298BF3D46B4
:103410007F1B06F0010130F8111076086D1E24F8AC
:10342000021BF6D1002F4FD01AF8011F082511F802
:103430000C60EAE7B0F802B00EE0F00748BFA4F86D
:1034400000B0A41C6D1E21D1002F3DD01AF8010F31
:10345000DFF848160825465CAF4298BF3D467F1B03
:10346000B8F1000F13D00BE0F00703D500F09AF885
:10347000A4F800B0A41C09F101096D1EE4D076087F
:10348000002EF1D104EB4504A944DDE77608002EB7
:10349000D3D104EB4504D7E7486A8047DFF8FC2521
:1034A00003E01AF8011F08258E5CAF4298BF3D4625
:1034B0007F1BF10702D5218841402180A41C76089A
:1034C0006D1EF6D1002FECD1BDE8F18F2DE9F44F40
:1034D000804689469A460A989AF80010C0F1040579
:1034E000400001FA00F6DFF8B0050B9F007BDDF825
:1034F00030B00D9C10F0030003D0022818D03AD34E
:103500004EE0EDB2AF42B8BF3D46EDB27F1BF1B227
:1035100088113BF810008E0024F8020B681EC5B21B
:10352000002DF4D1002F3BD004251AF8016FE8E7F5
:10353000EDB2AF42B8BF3D46EDB27F1BC0210E4297
:1035400009D0F6B2B0113BF81000B8F1000F20809E
:1035500001D000F027F8681EA41CB600C5B209F11E
:103560000109002DEAD1DFB104251AF8016FDFE768
:1035700004251AF8016FEDB2AF42B8BF3D46EDB277
:103580007F1BC020064203D0208880F0FF002080EF
:10359000681EA41CB600C5B2002DF2D1002FE7D1E1
:1035A000BDE8F18FD8F80830009A494640461B68BC
:1035B00018472DE9F84F044693469A460A989AF818
:1035C0000020830089469A40DFF8CC34D6B21B7BBA
:1035D00032110B9FDDF830800D9DC0F1020113F018
:1035E000030303D0022B24D069D37DE030B138F837
:1035F00012007F1E25F8020B1AF8016F022F11DB53
:10360000781007F00107311138F81110401E25F825
:10361000021B06F00F0138F8111025F8021B1AF8EA
:10362000016FF0D1002F5FD0301138F810002880E2
:103630005AE070B3F0210E421EBF38F81200288005
:10364000002C01D000F052F8AD1C09F101097F1ED9
:103650001DE0F0210E421FBF301138F81000288005
:10366000002C01D000F042F816F00F001EBF38F811
:1036700010006880002C06D0A3685A4609F10101A9
:1036800020461B6898472D1D09F10209BF1E1AF834
:10369000016F022FDDDA3FB336091EBF38F816007E
:1036A0002880002C20D05A4649462046A36801B005
:1036B000BDE8F04F1B68184702211AF8016FC9B224
:1036C0008F42B8BF3946C9B27F1AC020064203D024
:1036D000288880F0FF002880491EAD1C3601C9B241
:1036E0000029F2D1002FE7D1BDE8F18FA3685A4637
:1036F000494620461B6818472DE9FE4F8146DFF8F2
:10370000980388B0149CDDF85880179E00F09CF94F
:103710000746B7F9180018B100F0A6FA054600E010
:103720000025F868069006EB0900059065B1DFF802
:103730006803007B800707D40A98099B0090089AC9
:103740000599284600F0F1FA08990598FFF728FE38
:103750008146102C2ED14FF0000A0AE07200394643
:10376000204600F0F7FA15980AF1010A80440698FD
:1037700081440A9882452FDA0898099E50440090A7
:10378000C5484C46007B4746DDF814B010F00300F6
:10379000E4D00228E7D1388800281CBF2080002D03
:1037A00001D000F09CF8A41CBF1C0BF1010B761E8D
:1037B000F1D1D8E7082C52D14FF0000A0AE0324686
:1037C0003946204600F0C6FA15980AF1010A8044ED
:1037D000069881440A98824573DA0898099E5044F5
:1037E00000901899AC4800294C464746DDF814B0C3
:1037F000007B20D010F0030013D00228E4D13878E9
:1038000000281FBF189931F810002080002D01D02A
:1038100000F065F8A41C7F1C0BF1010B761EEED1A5
:10382000D2E717F8010B1899761E31F8100024F82A
:10383000020BF6D1C8E710F00300C0D00228C3D1B4
:10384000387800281CBF2080002D01D000F047F8F8
:10385000A41C7F1C0BF1010B761EF1D1B4E7189864
:1038600010B90FF24C2018904FF0000A09E000F058
:103870002BF8FFF79EFE15980AF1010A804406987E
:1038800081440A9882451CDA0898012C00EB0A0250
:1038900004D0022C10D0042CE9D0ECE7CDF8109025
:1038A000039718984346029009980190009605994D
:1038B0002846FFF78CFDDEE700F006F8FFF706FE6E
:1038C000D9E70BB0BDE8F08F1898CDF80C900290B6
:1038D0000998434601900096059928467047AB68C1
:1038E000009A594628461B6818472DE9F04F6A4F41
:1038F000044683B0884616469B46B7F93C0000F064
:10390000B3F9054600F030F88146E8680190301BB5
:1039100000F1010AB5F91800A0B100F0A5F9ABEB70
:103920000801491C009153464246214600F0FDF92A
:1039300008E052467988484600F047FA019808F1B5
:1039400001088144C3450DDB387BC007F1D55446DF
:103950004E46686A80473188414026F8021B641E43
:10396000F9D1EBE7BDE8F78F4146204618E50B4655
:10397000BBE72DE9F84F484F804689469346B7F993
:103980003C0000F071F90446B4F9185025B12846FE
:1039900000F06AF9824601E04FF0000A49464046CD
:1039A000FFF7FEFC0646E0680090387BC0070FD5A5
:1039B000606A804707460DB100F021F8308809F1B0
:1039C000010978403080E0688619CB45F3DA14E0CD
:1039D00055B100F014F8788809F101093080009899
:1039E0008619CB45F5DA08E0ABEB0900401C798875
:1039F000318000998E19401EF9D1BDE8F18FDAF8B7
:103A000008304A46414650461B681847F8B50446F8
:103A100021480D46164600F017F8B0F918702946EF
:103A2000FFF7A3FF068077B1384600F01DF9064680
:103A3000384600F019F903462A462146304601B0BF
:103A4000BDE8F0402CE0F1BDB0F93C0000F00CB94D
:103A50002DE9F041044610488846FFF7F5FF074678
:103A6000B7F91860FFF780FF0546786A8047298814
:103A7000484028806EB1304600F0F6F807463046E0
:103A800000F0F2F80346424621463846BDE8F041D0
:103A900006E0BDE8F0810000C03D00203877000856
:103AA0009B681B68184780B5FFF77AFC008802BD49
:103AB00000000100020003000400050006000700EA
:103AC000080009000A000B000C000D000E000F009A
:103AD0002DE9F04180464FF0FF35002221E000EB58
:103AE000C6073A8B0B8BD21A4B8BD21A12B24245B5
:103AF00016DA3A8B0B8B498BD21A511A0CB27CB165
:103B0000B7F918106342B7F91A20081800F658419F
:103B1000181800F6584000F089F9388B001B3883DC
:103B20003246794800EBC2018E8B3300D7D1B1F910
:103B30001830B1F91A1043F2D400C01A401A4045A7
:103B4000A8BF154628B2BDE8F0816F48007800286C
:103B500008BF00F070B87047F8B50446FFF7F5FFEE
:103B6000E01C694D20F00304B5F9120024B2A04214
:103B700036DB012605EBC600B0F91A0020B936B2D3
:103B800030002DD0002012E0761C4FF4C470864225
:103B9000F0DB25E005EBC307B7F91870B2F9181090
:103BA000B2F91A207F1ABA1AA2420FDA184605EBA8
:103BB000C002938B1F00EDD1B2F91870B2F91A2030
:103BC00043F2D403DB1B9A1AA24203DB00B210F1CA
:103BD000010F02D12046FFF77BFF10F1010F01D149
:103BE0000020F2BD05EBC0010A8B4B8B05EBC6072D
:103BF0009A188B8B7C833A83BB8313B105EBC3028A
:103C0000D683F8838E836868E968401C6860A8687A
:103C1000401EA8608842B8BFE860288AB5F9141031
:103C200020182882688A001B688200B28842B8BFC8
:103C3000A8823046F2BD344840F287118160C160ED
:103C400043F2D4014182818200214160018204213A
:103C50004183002101838183012101707047002885
:103C600018BFFFF779BF704738B1274901EBC00093
:103C7000B0F91800401800F65840704710B50024FD
:103C8000FFF763FF00200AE001EBC001098B138BF3
:103C9000528BC91A891A09B28C42B8BF0C461A490C
:103CA00001EBC002908B0300EED1118B43F2D400E4
:103CB000401A518B401A00B28442B8BF04462046D5
:103CC00010BD00281FBF104901EBC000B0F91A2039
:103CD000002A17D04B8AD3184B820B8A9A1A0A8271
:103CE00000224283828BC08B01EBC0039A831300B6
:103CF0001CBF01EBC202D0838868401C8860486802
:103D0000401E4860704700009400002010B5044633
:103D1000FFF7AAFF8189491E818109B221B9204696
:103D2000BDE81040FFF7CDBF10BD2DE9F0410446BE
:103D30000D4616469846069FD4F808C043463246BC
:103D400029462046DCF804C0E047761C7F1EF3D1EC
:103D5000BDE8F08162B38B0708D0521E11F8013B19
:103D600000F8013B00F024808B07F6D1830740F078
:103D7000208000BF103A07D330B4B1E83810103AB1
:103D8000A0E83810F9D230BC530724BFB1E80810BE
:103D9000A0E8081044BF51F8043B40F8043BD207A8
:103DA00024BF31F8022B20F8022B44BF0B7803709C
:103DB0007047083A07D3B1E80810083A40F8043BC6
:103DC00040F804CBF7D25307E4E710B5830744BFAC
:103DD00020F8021B521E530813D001EB0144042BA0
:103DE0000BDB40F8044B40F8044B40F8044B1B1F1E
:103DF00040F8044B042BF4DA1BB140F8044B5B1E73
:103E0000FAE7D20748BF018010BD50F8041B61B12A
:103E100050F8042BD30744BFA9F101039A180023DB
:103E200042F8043B091FFAD1EFE7704781423ABFDD
:103E300053189842FFF78EBF8018990707D0521E7B
:103E400024BF13F8011D00F8011DF6D87047810743
:103E50001CD1103A07D330B433E93210103A20E9BC
:103E60003210F9D230BC1032121F24BF53F8041D97
:103E700040F8041DF8D838BF121D521E24BF13F895
:103E8000011D00F8011DF8D8704700BF083A07D39C
:103E900033E90210083A40F804CD40F8041DF7D287
:103EA0000832EAE700000000000000002020202087
:103EB0002000200048484800000000005050F85002
:103EC000F85050002078A07028F02000C0C81020C2
:103ED000409818006090A040A890680060204000C2
:103EE0000000000010204040402010004020101032
:103EF00010204000005020F820500000002020F842
:103F0000202000000000000000602040000000F8B9
:103F100000000000000000000060600000081020A9
:103F200040800000708898A8C88870002060202019
:103F300020207000708808304080F80070880830B9
:103F40000888700010305090F8101000F880F008C9
:103F500008887000304080F088887000F8081020D1
:103F60004040400070888870888870007088887829
:103F70000810600000606000606000000000606089
:103F80000060204010204080402010000000F80019
:103F9000F800000080402010204080007088081049
:103FA0002000200070880868A8A87000708888F831
:103FB00088888800F08888F08888F0007088808081
:103FC00080887000E09088888890E000F88080F019
:103FD0008080F800F88080F0808080007088808089
:103FE00098887800888888F8888888007020202041
:103FF0002020700038101010109060008890A0C031
:10400000A0908800808080808080F80088D8A8A850
:10401000888888008888C8A89888880070888888D8
:1040200088887000F08888F0808080007088888898
:10403000A8906800F08888F0A09088007088807050
:1040400008887000F8202020202020008888888898
:10405000888870008888888888502000888888A888
:10406000A8A85000888850205088880088888850E8
:1040700020202000F80810204080F80070404040C8
:1040800040407000008040201008000070101010A8
:104090001010700020508800000000000000000098
:1040A000000000F840201000000000000000700830
:1040B000788878008080B0C88888F0000000708020
:1040C00080887000080868988888780000007088E8
:1040D000F8807000304840E04040400000007888A0
:1040E000887808708080B0C88888880020006020A8
:1040F000202070001000301010109060808090A080
:10410000C0A0900060202020202070000000D0A8D7
:10411000888888000000B0C88888880000007088FF
:10412000888870000000F08888F08080000078881F
:10413000887808080000B0C880808000000078807F
:104140007008F0004040E04040483000000088889F
:1041500088986800000088888850200000008888BF
:10416000A8A85000000088502050880000008888CF
:10417000887808700000F8102040F80010202040D7
:10418000202010002020202020202000402020106F
:10419000202040006890000000000000182000006F
:1041A00000000000C0200000000000007088000037
:1041B00000000000500000000000000068900000B7
:1041C000000000000000006020207000006090F0FF
:1041D0008888B08020007088F888880020007008E7
:1041E000788878003860A0B8E0A0B800704848E847
:1041F00048487000E0407048487040E00000D02817
:1042000078A05800A040A010788870006020302866
:1042100030207000708898A8C888700000007098DE
:10422000A8C8700000007088F88888000000F88036
:10423000E080F800000070202020700000007088EE
:10424000888870000000888888887000000088C80E
:10425000A898880020002020202020002000204056
:10426000808870001820000000000000C0200000BE
:10427000000000002050000000000000500000007E
:104280000000000068900000000000000000000036
:10429000000000200000000000000000002070A0CE
:1042A000A0A87020304040E04048B0000000887076
:1042B000507088008850F820F8202000202020002E
:1042C000202020003048205020906000880000000E
:1042D00000000000F888A8B8A888F800700878885E
:1042E00070000000002850A050280000000000F8D6
:1042F000080800000000007000000000F888A8888E
:1043000098A8F800F80000000000000020502000ED
:10431000000000000020702000700000609020402D
:10432000F0000000E0106010E00000001820000025
:10433000000000000000888888C8B08078989878CD
:1043400018181800000000303000000040C0404045
:10435000E0000000708888887000000000A05028ED
:1043600050A000008890A050B05078108890A040D5
:10437000B8081038C040C048D828380800885020F5
:1043800050880000002000F800200000103070FC71
:1043900070301000203038FC38302000002070F8D9
:1043A00020200000002020F870200000000828686D
:1043B000F860200000040408089050209D00FFFFD2
:1043C0009E00FFFF9F00FFFFA000FFFFA100FFFF77
:1043D000A200FFFFFFFFFFFFFFFFFFFFFFFFFFFF49
:1043E000FFFFFFFFFFFFFFFFFFFFFFFFFFFFFFFFDD
:1043F000FFFFFFFFFFFFFFFFFFFFFFFF7E00FFFF4D
:104400007600FFFF7F00FFFF8000FFFF8100FFFFBE
:104410008200FFFF8300FFFF8400FFFF8500FFFF96
:104420008600FFFF8700FFFF8800FFFF8900FFFF76
:104430008A00FFFF8B00FFFF8C00FFFF8D00FFFF56
:104440008E00FFFF8F00FFFF9000FFFF9100FFFF36
:104450009200FFFF9300FFFF9400FFFF7D00FFFF2E
:104460009500FFFF9600FFFF9700FFFF9800FFFFFA
:104470009900FFFF9A00FFFF7700FFFF70007900AF
:104480007000780070007A0070007C0070007B0083
:104490006600FFFF6800FFFF23007D0071007900C8
:1044A0007100780071007A0071007B007200790061
:1044B0007200780072007A0072007B006900FFFFD2
:1044C00075007C00730079007300780073007A0037
:1044D00073007C0073007B009B00FFFF6E00FFFFFA
:1044E000740079007400780074007A0074007B0016
:1044F000390078006A00FFFF6500FFFF410060009F
:1045000041005F0041006100410063004100620022
:104510006700FFFF6B00FFFF43007D004500600068
:1045200045005F00450061004500620064006000D6
:1045300064005F0064006100640062006C00FFFFC3
:104540004E0063004F0060004F005F004F006100AD
:104550004F0063004F0062009C00FFFF6F00FFFFF1
:1045600055005F0055006000550061005500620075
:1045700059005F006D00FFFF590062009000FF00CE
:10458000BC430008A43E0008A43E00087C45000887
:1045900020007E0006060100C1740008CD750008E9
:1045A000E1750008E7750008000000000808010137
:1045B00084450008070507002DE9F84F1E4634180A
:1045C000DFF810048946007B0B9915460A9FB1F865
:1045D00000B0B1F802804FF0800A10F0030003D061
:1045E000022814D025D336E028784AFA06F108428A
:1045F00014BF42465A46494600F05CF9641C761CDA
:10460000082E04BF00266D1C7F1EEDD123E0287804
:104610004AFA06F1084203D04246494600F04AF9F8
:10462000641C761C082E04BF00266D1C7F1EEED174
:1046300011E028784AFA06F1084204D04AF6AA2284
:10464000494600F037F9641C761C082E04BF00268A
:104650006D1C7F1EEDD1BDE8F18F2DE9F84F1D4691
:104660002F18DFF870039146007B88460A9EDDF81C
:104670002CA099F800404FF0C00B10F0030002D0BE
:10468000022821D050E0BAF1000F0DD000F04EF812
:1046900000F0C6F87F1C6D1C042D04BF002519F81E
:1046A000014F761EF2D13FE000F040F800F0B2F882
:1046B00000F0BDF87F1C6D1C042D04BF002519F807
:1046C000014F761EF0D12FE0BAF1000F16D0C5F1E0
:1046D00003004000C0F106014BFA01F1214051FAFC
:1046E00000F001D000F0A1F87F1C6D1C042D04BF68
:1046F000002519F8014F761EE9D115E0C5F1030038
:104700004000C0F106014BFA01F1214051FA00F2DC
:1047100001D000F08CF87F1C6D1C042D04BF002517
:1047200019F8014F761EE9D1BDE8F18FC5F10300FC
:104730004000C0F1060170472DE9F84F1D462F18C3
:10474000A4489146007B88460A9EDDF82CA099F883
:1047500000404FF0F00B10F0030002D0022821D0EF
:1047600050E0BAF1000F0DD000F04EF800F058F80C
:104770007F1C6D1C022D04BF002519F8014F761E09
:10478000F2D13FE000F040F800F044F800F04FF8BC
:104790007F1C6D1C022D04BF002519F8014F761EE9
:1047A000F0D12FE0BAF1000F16D0C5F10100800062
:1047B000C0F104014BFA01F1214051FA00F001D09F
:1047C00000F033F87F1C6D1C022D04BF002519F882
:1047D000014F761EE9D115E0C5F101008000C0F15E
:1047E00004014BFA01F1214051FA00F201D000F02E
:1047F0001EF87F1C6D1C022D04BF002519F8014F07
:10480000761EE9D1BDE8F18FC5F101008000C0F14D
:10481000040170474BFA01F1214041FA00F2704760
:104820004BFA01F1214041FA00F03AF810204146DC
:10483000384678E02DE9F041044666488846007B1A
:1048400016461F46069D10F0030002D0022816D01F
:104850002BE05DB1012F28DB16F8010B414635F83E
:10486000102000F027F87F1E641CF3E7012F1CDBEB
:1048700016F8012B00F01DF87F1E641CF6E795B1B9
:10488000012F12DB3278100001D000F010F87F1EEB
:10489000641C761CF4E73278100001D000F009F8AF
:1048A0007F1E641C761C012FF5DABDE8F08135F817
:1048B00012204146204636E02DE9F04104464548A5
:1048C0008846007B16461F46069D800715D45DB1BD
:1048D000012F26DB36F8020B414635F81020FFF792
:1048E000E9FF7F1E641CF3E7012F1ADB36F8022B69
:1048F000FFF7DFFF7F1E641CF6E785B1012F10DB99
:1049000032880AB1FFF7D3FF7F1E641CB61CF5E79F
:1049100032880AB1FFF7CDFF7F1E641CB61C012F41
:10492000F6DABDE8F081F8B50C4640F28F112A4F57
:104930000E1A15460121384600F0EAF8A1B203200C
:1049400000F055F9311289B2062000F050F9B1B2E9
:10495000072000F04CF9222000F038F9A8B200F04E
:1049600020F93846BDE8F440012100F0CFB845F207
:10497000555070474AF6AA22D5E7F8B5154F0446B8
:10498000387B0D461646C0070AD5A6420ADB2946E3
:104990002046FFF7EFFF641CF7E700F01FF8641CE8
:1049A000A642FADAF1BDF8B50A4F0446387B0D4647
:1049B0001646C0070AD5AE420ADB29462046FFF755
:1049C000D9FF6D1CF7E700F009F86D1CAE42FADA6A
:1049D000F1BD0000C03D0020000002407A88294659
:1049E0002046A0E7F8B504460D4616461F4605E0EA
:1049F000324629462046FFF7C0FF6D1CAF42F7DA6A
:104A0000F1BD2DE9FA4F83B0814615460E9EDDF8C3
:104A10003CB0DDF840A0DDF84480129C002707E0A0
:104A200000942B4652464846FFF746FFDA447F1C67
:104A30000498874222DA0398C119012E08D0022E69
:104A40000BD0042E0ED0082E11D0102EE8D0EDE79A
:104A500000F017F8FFF7B0FDE8E700F012F8FFF7F5
:104A6000FCFDE3E700F00DF8FFF766FEDEE70094DB
:104A70002B4652464846FFF7DDFED7E705B0BDE8B6
:104A8000F08F019400954346524648467047704760
:104A900080B500F0B4F8002002BD7047F0B50022E8
:104AA00001230C6893401C409C422BD154000325E9
:104AB000A5400668ED432E40066006680F79A740C2
:104AC0003E4306600E79012E18BF022E11D1866872
:104AD0002E40866086684F79A7403E4386604668D0
:104AE00026EA0303436043688E799640B6B23343A7
:104AF0004360C3682B40C360C368CD7905FA04F4F2
:104B00002343C360521C102ACAD3F0BD01837047EF
:104B1000418370474161704710B50121082000F0C2
:104B2000BFF9DFF850434FF6FF7000F019F8D24894
:104B3000FFF7B4FF0121042000F0B2F9802000F05B
:104B40000FF8CE48FFF7AAFF0121012000F0A8F9D5
:104B50003F2000F005F8BDE81040C948FFF79EBFB0
:104B60002060012020710020A071032060710020CE
:104B7000E0712146704701B40098411E0091002861
:104B8000FAD101B0704710B50146BB48FFF7C2FF2C
:104B9000BB4C04212046FFF7BBFF2046BDE8104078
:104BA00011E038B5B64D044620212846FFF7AEFF88
:104BB0002146B148FFF7AEFF04212846FFF7A8FFC2
:104BC0002846BDE834400421FFF7A0BF10B50446D5
:104BD0002021AB48FFF79CFF05E010B504462021DB
:104BE000A748FFF793FF2046BDE81040CBE710B57C
:104BF0000C46FFF7EBFF2046BDE81040EDE738B567
:104C00009F4C00F043F94FF6FF7500F03DF902218B
:104C10002046FFF77DFF00F037F900F037F901215A
:104C200000F035F9082100F032F9042100F02FF9E5
:104C300000F02AF901212046FFF76AFF8320FFF7E1
:104C4000C5FF0220FFF7C9FF8520FFF7BFFF032044
:104C5000FFF7C3FF8B20FFF7B9FF0120FFF7BDFF70
:104C60008C20FFF7B3FF9320FFF7B7FF9120FFF7EA
:104C7000ADFF0120FFF7B1FF8320FFF7A7FF00F092
:104C800009F93E20FFF7A2FFB020FFF7A6FF3F2063
:104C9000FFF79CFF0320FFF7A0FF4020FFF796FFE0
:104CA0001020FFF79AFF4120FFF790FF5620FFF7F3
:104CB00094FF4220FFF78AFF1320FFF78EFF432067
:104CC000FFF784FF4620FFF788FF4420FFF77EFFB1
:104CD0002320FFF782FF4520FFF778FF7620FFF7BC
:104CE0007CFF4620FFF772FF00F0D4F84720FFF763
:104CF0006DFF5E20FFF771FF4820FFF767FF4F2031
:104D0000FFF76BFF4920FFF761FF4020FFF765FFCA
:104D10001720FFF75BFF9120FFF75FFF2B20FFF7C6
:104D200055FFF920FFF759FF00F0AEF81B20FFF701
:104D30004DFF1420FFF751FF1A20FFF747FF112006
:104D4000FFF74BFF1C20FFF741FF0620FFF745FF51
:104D50001F20FFF73BFF4220FFF73FFF00F094F8D2
:104D60001920FFF733FF0A20FFF737FF1920FFF75D
:104D70002DFF1A20FFF731FF00F086F81920FFF70A
:104D800025FF1220FFF729FF00F07EF81E20FFF715
:104D90001DFF2720FFF721FF3A48FFF7ECFE2420F4
:104DA000FFF714FF6020FFF718FF3D20FFF70EFF0D
:104DB0004020FFF712FF3420FFF708FF3820FFF7ED
:104DC0000CFF3520FFF702FF3820FFF706FF2420F5
:104DD000FFF7FCFE3820FFF700FF00F055F8242015
:104DE000FFF7F4FE3C20FFF7F8FE1620FFF7EEFE7B
:104DF0001C20FFF7F2FE0120FFF7E8FE0620FFF778
:104E0000ECFE5520FFF7E2FE00F044F80220FFF729
:104E1000DDFE00F03FF80320FFF7D8FE00F03AF87F
:104E20000420FFF7D3FE00F035F80520FFF7CEFE93
:104E3000EF20FFF7D2FE0620FFF7C8FE00F02AF8A9
:104E40000720FFF7C3FE00F025F80820FFF7BEFE9D
:104E50000120FFF7C2FE0920FFF7B8FE8F20FFF701
:104E6000BCFE2220FFF7B2FE2046BDE8344013E02E
:104E700000000000143E0020000C02400008024028
:104E800000000240FFFF0100284674E60221204690
:104E9000FFF73CBE0020A0E60121FFF737BE00006F
:104EA000044A0029116814BF084321EA0000106079
:104EB000704700003038024038B50446002000F04A
:104EC0006BFADFF81C0400F069FADB234FF4C772B9
:104ED0005021132000F064FA00254FF4C77213210B
:104EE00005F1960000F0BAFA35B14FF4C7721321FC
:104EF000C5F1960000F0B2FA1435462DEDDB2825F9
:104F0000DB22502105F1120000F0B2FA28354FF4EF
:104F1000BE708542F4DB4FF47F4000F03FFA20681A
:104F200001B0BDE83040502313224FF4BE7100F0B1
:104F3000F1BA10B50446FFF7BFFF4FF6FF7000F05F
:104F40002DFA2068BDE81040502313224FF4BE71A3
:104F50001E3000F0DFBA38B500F079F900F035FA0C
:104F600000F0F3F8DF4800F0D7FA0522A0210FF295
:104F7000C43000F0D9FA012000F0EEFA40F28F14AC
:104F8000EF2322464F2100F069F9DC2322464F210E
:104F9000122000F0E9FA00F0D4F8002404F1120520
:104FA000E222DC21284600F063FAA91E2820012312
:104FB000E72209B294FBF0F000F006FB28344FF42E
:104FC000BE708442EADB002404F1960500F024F868
:104FD0009CB1291F012000F009FB6FF0130000F0C5
:104FE00016F8C4F1960500F017F8291F012000F00B
:104FF000FDFA142000F00BF805E02A1F12B2072179
:10500000302000F0FBFA1434462CDDDB31BD0221E8
:1050100094FBF0F000F0D6BA12220D21284600F0E1
:105020001DBA2DE9F047804641F289309146814210
:10503000A4BFAD48411840F6C5108142A4BF41F25B
:105040008830411AC82091FBF0F04043461C0024F0
:105050004FF08C0A05E0002848BF281828F81400F3
:10506000641C4C451FDA44B900F0D0FA90FBFAF109
:105070000AFB1100A8F80000F2E700F0C7FA311AA5
:1050800090FBF6F006FB001508EB440030F9027CBB
:1050900000F0BCFAC0074CBFE819781B00B28D289D
:1050A000D9DB401BDAE7BDE8F087F0B50FF2A020AE
:1050B00085B0D0E90023CDE902234FF43E7000F023
:1050C00007FB00F041F800F0C2F800F0C3F800F070
:1050D000BBF8372214210FF2802000F007FB00F00C
:1050E0000EFB2046FEF7C0FD019000F02AF800F00C
:1050F00007FB05467D4E16E04FF4BE720198FFF7A0
:1051000090FF00F0FDFA074600F0ABF8314602A828
:1051100000F00AFB00F0F4FAC01B6428BCBFC0F129
:10512000640000F0EFFA00F0EBFA411B42F210705D
:105130008142E1DB00F0E2FA2046FEF7C2FD05B055
:10514000F0BD6B4800F0E8B904466FF07F4000F016
:1051500025B970B504460D4600261FE0304600F024
:1051600055FB644900F06AFB4FF0814100F066FB9B
:1051700000F0D0FB002200F0F5FB00F0EBFC5E49F4
:1051800000F05CFB4FF07C5100F058FB5B4900F0F5
:1051900029FD00F069FD24F81600761CAE42DDDB27
:1051A00070BD2DE9FF470FF2C010002400F0ACF8ED
:1051B0008146FFF7CAFF00F04AF800F04BF800F014
:1051C00043F8372214210FF2A81000F08FFA484656
:1051D000FEF74AFD064640F29511FFF7BAFFFFF7CA
:1051E000B0FF00F08DFA0746DFF814815A2512E06F
:1051F00000F086FA824600F034F8414602A800F03A
:1052000093FA00F07DFAA0EB0A006428BCBFC0F15D
:10521000640000F077FA00F073FAC01B42F21071DC
:1052200088420CDA204690FBF5F1641C05FB110066
:1052300000281DBF0198801C01900196D8E74846C0
:10524000FEF73FFDBDE8FF872E4800F065B9FF205F
:1052500000F0A2B84B234FF4C8723721002000F0B1
:105260009FB800200090002301AA70477FB50FF27D
:105270000C1000F049F8FFF767FFFFF7E8FFFFF7B2
:10528000E9FFFFF7E1FF372214210FF2F80000F0E9
:105290002DFA2046FEF7E8FC019040F29511FFF749
:1052A00058FFFFF7DEFF114902A800F03DFA5A252A
:1052B0000198861C01964FF47F4000F06FF8502350
:1052C00013224FF4BE71304600F024F90A2000F09A
:1052D00019FA6D1EECD12046FEF7F3FC7FBD0000ED
:1052E000404040001C14000878ECFFFFB94E000855
:1052F0009845000835FA8E3C00000C4300008C42B3
:10530000334F000860250008D0E90023CDE90223CF
:1053100040F22A3000F0DCB980B5FFF7FDFB00F069
:1053200061F8FFF718FEFFF7C0FEFFF73AFFFFF73F
:105330009DFFF8E74D454D4445565F447261774700
:1053400072617068202D2053616D706C65000000E3
:10535000130050008E01DB0052616E646F6D206798
:105360007261706800000000130050008E01DB00C5
:1053700053696E6520776176650000001300500068
:105380008E01DB005365766572616C20776176650E
:10539000732E2E2E0000000000F012BE00F01CBE86
:1053A0002DE9F04104460D4616461F46042000F044
:1053B0008FFC80463B4632462946204600F0D2FC10
:1053C0004046BDE8F04100F083BC80B500210020DC
:1053D00000F00CF91A49BDE8005040F6FF72134680
:1053E0000846DDE738B5174C2E2084F8500000F051
:1053F00011FE154804F110050068A862201D206107
:1054000000F00FFE0FF24C00A8631048A860201DAA
:10541000206101202871032084F84C006FF0704057
:1054200028626862002000F0CBFD6FF07F4000F042
:10543000D3FD0748E860BDE8314000F0A0BD0000A2
:1054400001F0FFFFC03D00209000002098450008BB
:10545000787A00082D5D0008ED5C00080B460146D7
:105460001846024B9B6C1B68184700BFC03D0020CC
:1054700000F0E0BD2DE9F94F254881B000690F46E5
:105480001446B0F90280B0F906A0002558B1415F7A
:105490008C42B8BF0D1BB0F904003919491E88426F
:1054A000BCBF001B471CBD422FDA019830F9150024
:1054B000191809E00A46494600F0BCFD4A46314643
:1054C000584600F0B7FD31466D1CBD421DDA01980B
:1054D000029A30F9150016184145B8BF4645F2DB6F
:1054E0008A45B8BFB245EEDB881900EBD0704FEAB1
:1054F00060092819401E04EB050B8E42DADB4A4690
:1055000000F098FD32464946DAE7BDE8F78F000023
:10551000C03D0020AEE70000024A916900B19061F1
:1055200008467047C03D0020F8B5044609480D46BE
:10553000B0F92C00164640F0020000F099FD074635
:1055400032462946204600F0D1F83846BDE8F24000
:1055500000F08EBDC03D0020024A117D1075084646
:1055600070470000C03D0020F8B504460D461646C1
:105570001F4600F0DBFB32463946204600F0D6FBE2
:105580006D1C7F1E3A462946204600F053FD3A46E0
:1055900029463046BDE8F84000F04CBD30B585B036
:1055A0000C4601A90091154600A900F069FD611E95
:1055B00000AB2A46C9B200F071FD01A800F0BCFDA5
:1055C00005B030BD0022E9E730B585B015460C4680
:1055D00001AA1946009200AB002200F05FFD2A46A6
:1055E000214601A800F082F805B030BD024A50847F
:1055F0009184002070470000C03D0020024B598478
:105600009A8400F019BE0000C03D0020F8B52B4F71
:10561000384600F04DFE0446381D00F049FE0546B0
:1056200007F1080000F044FE064607F10C0000F008
:105630003FFE2349234A237873BB2B68224FDFF8B0
:105640008CC007FB03C32B6003460827D5F800C0B6
:1056500002FB0C1CC5F800C043F804CBD5F800C011
:1056600002FB0C1CC5F800C043F804CBD5F800C001
:1056700002FB0C1CC5F800C043F804CBD5F800C0F1
:1056800002FB0C1CC5F800C043F804CB7F1EDDD123
:10569000C36F3360012323702B6802FB0311296061
:1056A000317801F01F0150F8212032602A6840F85B
:1056B0002120306880008008F2BD00BF000000207B
:1056C0005FF36E3C0D661900210089EAA85FD9A33B
:1056D00038B50446FEF7C3FA050005D0FEF7C4FA54
:1056E0002246002100F0E5FD284632BD024B5984D8
:1056F0009A8400F021BD00BFC03D00207047704774
:1057000000F07ABC20B500F077FC0A2501E000F03B
:1057100076FC2846451E30B100F004FE062CACBFD6
:1057200005202046F3E720BD2DE9F84F81468A4643
:10573000934698460A9DB9F1000F1FD0B9F9006051
:10574000002E48BF0026B9F90240002C48BF0024B3
:1057500000F0F2FD471EB9F904008742C8BF0746B2
:1057600000F0EBFDB9F90610401E8842C8BF08469C
:10577000B91B001B01F10109471C07E000260024AA
:1057800000F0DAFD814600F0D8FD0746B8F1000FC1
:1057900008BFC7F10008B9F1010FA8BF012F32DB24
:1057A000009543464A462146304600F07BFE5FEABC
:1057B000000903D15846D047012025E000F068FFDA
:1057C0008046484600F095FE002514E0791B4145CF
:1057D000BCBF484600F06CFF3DB12A19314648462F
:1057E00000F078FF484600F09BFF5846D0474846F7
:1057F00000F043FF4544BD42E8DB484600F0D7FDDA
:10580000002000F076FE0020BDE8F28F002840F175
:105810000780F446404200F003F850F00040604733
:105820000AD0B0FA80F18840D1F19D01C905020685
:1058300072F1004241EB102070470000FF2212EA93
:10584000D05C1DBF12EAD153944593422BE09C4497
:10585000D30780EA01021A4043EA002043EA01210B
:10586000A1FB0030410038BF40007CF17F010BDB21
:10587000FE294ADA5B0842EAC15153EA006373F138
:10588000004C51EB10207047D1F1080CDCF12001E5
:105890002FDB5B0810FA01F10B4373F1004120FA92
:1058A0000CF05041704794451CBF02EAD15393421B
:1058B00080EA010202F000421DD0400019D04900E8
:1058C00017D05BB9634514D00902B1FA81F399404E
:1058D000BCEB030CC00140F00040C1E70002B0FA8D
:1058E00080FC10FA0CF0B3EB0C0CC90141F0004144
:1058F000B6E71000704740000AD0490008D010F108
:10590000807F94BF11F1807F02E042F0FF4070473A
:10591000D04370475FF0FF0C1CEAD05114BF6145C3
:1059200006E0C110400721F0E04101F160517047ED
:1059300079B900F0004100020AD0B0FA80FC00FA08
:105940000CF001F16051A1EB0C5101EBD0214005AD
:10595000704741020CBF40F4E0016FF000010020ED
:10596000704700002DE9734C1646DDE90001C1F3D4
:105970000A5240F2FF74A2420DD0002A04BF09036C
:1059800050EA113018D1F00740F1AA8000205849A0
:10599000CDE90001A4E0090350EA113018BFDDE9A8
:1059A000000140F0A38000F0D3FE212101604FF000
:1059B000FF306FF0004199E000A800F0CFFE86199B
:1059C000DDE900016FF001024A4B00F07FFF0DD8C6
:1059D000DDE9000100224FF0795300F08FFF05D27E
:1059E000F0077DD54249CDE9002179E0DDE90023CA
:1059F000DDE9000100F09AFF04460D46F00731D5BD
:105A00003D483E4922462B4600F090FF3C4A3D4B24
:105A100001F05EF822462B4600F088FF3A4A3B4BE5
:105A200001F056F822462B4600F080FF384A394BE9
:105A300001F04EF822462B4600F078FF364A374BED
:105A400001F046F822462B4600F070FF6FF051023D
:105A5000334B01F03DF822462B4600F067FF002251
:105A6000234B39E0DDE9000122462B4600F05EFFC2
:105A700082468B462B482C4922462B4600F056FF87
:105A80002A4A2B4B01F024F822462B4600F04EFF09
:105A9000284A294B01F01CF822462B4600F046FF0D
:105AA000264A274B01F014F822462B4600F03EFF11
:105AB000244A254B01F00CF802460B4620462946A5
:105AC00000F034FF214A224B01F002F852465B46B7
:105AD00000F02CFFDDE9002300F0FAFFCDE9000122
:105AE000B007DDE9000148BF81F00041BDE87C8CD2
:105AF0000000F03FFFFF3FBE09260A1039BA213EE1
:105B00003BA861C6F97D92BE63AC30909F01FA3E1E
:105B1000F6FB51166CC156BFB10255555555A53F00
:105B2000FFFFDFBFB08F2FC310D8E53D8F0C73A1EF
:105B3000E1E55ABE4DADE44FE31DC73E3EE3B51966
:105B4000A0012ABFFAF010111111813F425555559D
:105B50005555C5BF4FEAF17CBCF1E04C2CBFBCF5FC
:105B6000001F11E05FEA4C0C34BFBCF17F5F2EE0F8
:105B70005FEA9C0C4FEA0C1C4FEA3C0CC10071F12F
:105B800000414CEB50707047C90241EA5051C002CD
:105B900018BF41F0010141F000414FEA6C50C0F1E3
:105BA0000900212810D240EACC7CCCF1200C11FA5B
:105BB0000CF070F10040CCF1200C21FA0CF00CF04C
:105BC000004C40EB0C0070474FEACC707047490026
:105BD00011F5001F04D84FEACC10FF30C005704704
:105BE000C817704790EA010F44BF81F0004100F0F0
:105BF000E3BF00BF421A3CBF801A89184FF0004C27
:105C0000C0F3C752FF2A24D0C1F3C75313B3D21A2B
:105C1000D2F1190327DD4CEA01214CFA03F321EA02
:105C20000303D140C20D4CEA0020401834BF20EAE3
:105C30000C004CEA5000D20553EA006373EB0C0CE5
:105C400052EB1020420012F1807F38BF7047C00D28
:105C5000C0057047490212BF9A4200EB5120F8E795
:105C6000D2F11703D9D570474100090E7F3915D4F9
:105C7000D1F11F0114D4400007D2C00140F0004010
:105C8000C84048BF6FF000407047C00140F000407E
:105C9000C8404CBF4FF00040404270470020704762
:105CA00000424FF0004058BFC0437047D0490A7BC4
:105CB000920802F0010282F0010206E0CC490A7B60
:105CC00052074CBF4FF0FF32002221F812007047FC
:105CD00010B5C74A117B80EA01035B0703D513881F
:105CE0005488148053801073084610BDC04AB2F91E
:105CF0000630994200DA704710B5B2F90A308B428B
:105D0000A1BFB2F904309842B2F9083083420CDBEB
:105D1000147B936BE40703D5BDE810409A6A1047E3
:105D2000BDE8104052885B6A184710BD10B5B04BF3
:105D3000B3F90640A142A4BFB3F90A408C4210DB7C
:105D4000B3F90440A042B8BF2046B3F908409442DA
:105D5000B8BF2246824204DB9B6BBDE810401B6942
:105D6000184710BD38B5A24CB4F90450A842B8BFCA
:105D70002846B4F908509542B8BF2A4682420EDB45
:105D8000B4F90650A942B8BF2946B4F90A509D4259
:105D9000B8BF2B468B4202DBA46BA469A04731BD80
